:020000021000EC
:10000000130101FF232611002324810013040101A1
:10001000370503001305050097000000E780800105
:100020008320C100032481001301010167800000C7
:10003000130101FE232E1100232C81001304010261
:10004000232AA4FE130500002328A4FE6F0040000D
:10005000832504FF13053001634AB5026F00400099
:10006000032604FF130516E0832544FF131626001C
:10007000B385C50023A0A5006F004000032504FF41
:10008000130515002328A4FE6FF09FFC1305000044
:100090002326A4FE6F0040008325C4FE1305300113
:1000A000634CB5026F004000032544FF8325C4FE66
:1000B00093952500B305B50003A50500131535007C
:1000C00023A0A5006F0040000325C4FE1305150002
:1000D0002326A4FE6FF05FFC130500002324A4FE7A
:1000E0006F004000832584FE13053001634CB50288
:1000F0006F004000032544FF832584FE939525006F
:10010000B305B50003A505001355250023A0A500E0
:100110006F004000032584FE130515002324A4FE70
:100120006FF05FFC130500002322A4FE6F00400067
:10013000832544FE13053001634CB5046F00400075
:10014000032544FF832544FE939525003305B50020
:10015000032505002320A4FE032504FE1355454076
:100160002320A4FE032504FE832544FF032644FE2A
:1001700013162600B385C50023A0A5006F0040001C
:10018000032544FE130515002322A4FE6FF05FFA39
:10019000130500008320C101032481011301010222
:0401A0006780000074
:020000023000CC
:1000000000100000002000000000000000000000C0
:1000100000000000000000000000000000000000E0
:1000200000000000000000000000000000000000D0
:1000300000000000000000000000000000000000C0
:1000400000000000000000000000000000000000B0
:0400000310000000E9
:00000001FF
