:020000021000EC
:10000000130101FF232611002324810013040101A1
:10001000370503001305050097000000E780800105
:100020008320C100032481001301010167800000C7
:10003000130101FD2326110223248102130401036D
:10004000232AA4FE130500002328A4FE6F0040000D
:10005000832504FF13053001634AB5026F00400099
:10006000032604FF130516E0832544FF131626001C
:10007000B385C50023A0A5006F004000032504FF41
:10008000130515002328A4FE6FF09FFC1305000044
:100090002326A4FE6F0040008325C4FE1305300113
:1000A000634CB5026F004000032544FF8325C4FE66
:1000B00093952500B305B50003A505001305B50705
:1000C00023A0A5006F0040000325C4FE1305150002
:1000D0002326A4FE6FF05FFC130500002324A4FE7A
:1000E0006F004000832584FE130530016348B5048A
:1000F0006F004000032544FF832584FE939525006F
:100100003305B500032505002322A4FE032544FE84
:100110001325850C832544FF032684FE1316260031
:10012000B385C50023A0A5006F004000032584FE11
:10013000130515002324A4FE6FF0DFFA1305000059
:100140002320A4FE6F004000832504FE1305300128
:100150006346B5046F004000032504FE232EA4FC73
:100160008325C4FD13955500139625003305C5005E
:100170003305B500832544FF032604FE131626002D
:10018000B385C50023A0A5006F004000032504FE31
:10019000130515002320A4FE6FF01FFB13050000BC
:1001A000232CA4FC6F004000832584FD130530013F
:1001B000634CB5026F004000032544FF832584FD96
:1001C00093952500B305B50003A505001335057DFE
:1001D00023A0A5006F004000032584FD1305150032
:1001E000232CA4FC6FF05FFC130500008320C102E8
:0C01F0000324810213010103678000005A
:020000023000CC
:1000000000100000002000000000000000000000C0
:1000100000000000000000000000000000000000E0
:1000200000000000000000000000000000000000D0
:1000300000000000000000000000000000000000C0
:1000400000000000000000000000000000000000B0
:0400000310000000E9
:00000001FF
