:020000021000EC
:10000000130101FF232611002324810013040101A1
:10001000370503001305050097000000E780800105
:100020008320C100032481001301010167800000C7
:10003000130101FA232E1104232C81041304010659
:10004000232AA4FE130500002328A4FE6F0040000D
:10005000832504FF130530016344B5066F0040009B
:10006000034504FF2326A4FE8325C4FE13958500C3
:1000700033E5A500139605013365C5009395850109
:100080003365B5002324A4FE032584FEB7C5BFBF96
:10009000938505FC3305B500832544FF032604FF43
:1000A00013162600B385C50023A0A5006F004000ED
:1000B000032504FF130515002328A4FE6FF05FF944
:1000C000032544FF2322A4FE032544FF2320A4FE8E
:1000D000032544FF232EA4FC032544FF232CA4FC6A
:1000E00013050005232AA4FC130580022328A4FC81
:1000F000130500002326A4FC6F0040000325C4FC68
:10010000832544FD6374B5046F004000032544FE5D
:100110008325C4FC3305B50003050500A305A4FC35
:100120000305B4FC13051500832544FE0326C4FC17
:10013000B385C5002380A5006F0040000325C4FCE3
:10014000130515002326A4FC6FF05FFB13050000C8
:100150002322A4FC6F004000032544FC832544FDBA
:100160006376B5046F004000032504FE832544FC3C
:100170003305B50003050500A301A4FC830534FC89
:10018000130500003305B540832504FE032644FC17
:10019000B385C5002380A5006F004000032544FC03
:1001A000130515002322A4FC6FF01FFB13050000AC
:1001B000232EA4FA6F0040000325C4FB832504FD11
:1001C0006378B5046F0040000325C4FD8325C4FB9C
:1001D000939515003305B50003150500231DA4FAFA
:1001E0000315A4FB130515008325C4FD0326C4FBDA
:1001F00013161600B385C5002390A5006F004000BC
:100200000325C4FB13051500232EA4FA6FF0DFFAB3
:1002100013050000232AA4FA6F004000032544FBC5
:10022000832504FD637AB5046F004000032584FD37
:10023000832544FB939515003305B5000315050090
:100240002319A4FA831524FB130500003305B540D8
:10025000832584FD032644FB13161600B385C500D1
:100260002390A5006F004000032544FB13051500F3
:10027000232AA4FA6FF09FFA130500002326A4FA9C
:100280006F0040008325C4FA130530016340B504B4
:100290006F004000032544FF8325C4FA9395250091
:1002A000B305B50003A50500371611111306161185
:1002B0003305C50023A0A5006F0040000325C4FA44
:1002C000130515002326A4FA6FF0DFFB13050000C9
:1002D0008320C10503248105130101066780000006
:020000023000CC
:1000000000100000002000000000000000000000C0
:1000100000000000000000000000000000000000E0
:1000200000000000000000000000000000000000D0
:1000300000000000000000000000000000000000C0
:1000400000000000000000000000000000000000B0
:0400000310000000E9
:00000001FF
