:020000021000EC
:10000000130101FF232611002324810013040101A1
:10001000370503001305050097000000E780800105
:100020008320C100032481001301010167800000C7
:10003000130101FD2326110223248102130401036D
:10004000232AA4FE130500002328A4FE6F0040000D
:10005000832504FF13053001634AB5026F00400099
:10006000032604FF130516E0832544FF131626001C
:10007000B385C50023A0A5006F004000032504FF41
:10008000130515002328A4FE6FF09FFC1305000044
:100090002326A4FE6F0040008325C4FE1305300113
:1000A0006348B5046F004000032544FF8325C4FE68
:1000B000939525003305B500032505009305300011
:1000C00097000000E780C00D832544FF0326C4FE8F
:1000D00013162600B385C50023A0A5006F004000BD
:1000E0000325C4FE130515002326A4FE6FF0DFFAD6
:1000F00037150300832505052322B4FE13050505E6
:10010000032545002324A4FE130500002320A4FE9C
:100110006F004000832504FE130530016346B506D9
:100120006F004000032504FE13751500931525008C
:10013000130544FE3305B50003250500232EA4FC5A
:100140000326C4FD032544FF832504FE9395250063
:100150003305B5000325050093055000E7000600B0
:10016000832544FF032604FE13162600B385C5002D
:1001700023A0A5006F004000032504FE1305150011
:100180002320A4FE6FF01FF9130500008320C10295
:10019000032481021301010367800000130101FFA2
:1001A000232611002324810013040101232AA4FE25
:1001B0002328B4FE032544FF832504FF3305B5003F
:1001C0008320C10003248100130101016780000026
:1001D000130101FF232611002324810013040101D0
:1001E000232AA4FE2328B4FE032544FF832504FF0D
:1001F0003305B5408320C1000324810013010101B0
:040200006780000013
:020000023000CC
:1000000000100000002000000000000000000000C0
:1000100000000000000000000000000000000000E0
:1000200000000000000000000000000000000000D0
:1000300000000000000000000000000000000000C0
:1000400000000000000000000000000000000000B0
:081050009C010100D001010028
:0400000310000000E9
:00000001FF
