:020000021000EC
:10000000130101FF232611002324810013040101A1
:10001000370503001305050097000000E780800105
:100020008320C100032481001301010167800000C7
:10003000130101FE232E1100232C81001304010261
:10004000232AA4FE375534122328A4FE37E5CDAB6E
:100050002326A4FE130500002324A4FE6F00400005
:10006000832584FE13053001634CB5026F00400008
:10007000032504FF032684FE3345C500832544FF82
:1000800013162600B385C50023A0A5006F0040000D
:10009000032584FE130515002324A4FE6FF05FFCE6
:1000A000130500002322A4FE6F004000832544FEB8
:1000B00013053001634EB5026F004000032544FF75
:1000C000832544FE93952500B305B50003A50500DF
:1000D0000326C4FE3305C50023A0A5006F00400021
:1000E000032544FE130515002322A4FE6FF01FFC18
:1000F000130500002320A4FE6F004000832504FEAA
:10010000130530016348B5046F004000032544FF28
:10011000032604FE93152600B305B50003A50500CC
:1001200013763600B71603009386060513162600CD
:100130003306D600032606003345C50023A0A500DC
:100140006F004000032504FE130515002320A4FEC4
:100150006FF0DFFA130500008320C1010324810141
:08016000130101026780000099
:020000023000CC
:1000000000100000002000000000000000000000C0
:1000100000000000000000000000000000000000E0
:1000200000000000000000000000000000000000D0
:1000300000000000000000000000000000000000C0
:1000400000000000000000000000000000000000B0
:1010500000000000FF00000000FF00000000FF0093
:0400000310000000E9
:00000001FF
