:020000021000EC
:10000000130101FF232611002324810013040101A1
:10001000370503001305050097000000E780800105
:100020008320C100032481001301010167800000C7
:10003000130101FD2326110223248102130401036D
:10004000232AA4FE130500002328A4FE6F0040000D
:10005000832504FF13053001634AB5026F00400099
:10006000032604FF130516E0832544FF131626001C
:10007000B385C50023A0A5006F004000032504FF41
:10008000130515002328A4FE6FF09FFC1305000044
:100090002326A4FE6F0040008325C4FE1305300113
:1000A0006344B5046F0040000325C4FE1375F501D9
:1000B0002324A4FE032544FF8325C4FE9395250035
:1000C000B305B50003A50500032684FE3315C5005E
:1000D00023A0A5006F0040000325C4FE13051500F2
:1000E0002326A4FE6FF05FFB130500002322A4FE6D
:1000F0006F004000832544FE130530016344B504BE
:100100006F004000032544FE1375F5002320A4FE74
:10011000032544FF832544FE93952500B305B500D0
:1001200003A50500032604FE3355C50023A0A50042
:100130006F004000032544FE130515002322A4FE92
:100140006FF05FFB13050000232EA4FC6F0040003E
:100150008325C4FD130530016344B5066F004000DC
:10016000032544FF8325C4FD939525003305B50081
:1001700003250500232CA4FC0325C4FD137575007D
:10018000232AA4FC032584FD832544FD3355B54073
:10019000232CA4FC032584FD832544FF0326C4FDF2
:1001A00013162600B385C50023A0A5006F004000EC
:1001B0000325C4FD13051500232EA4FC6FF05FF981
:1001C000130500008320C1020324810213010103EF
:0401D0006780000044
:020000023000CC
:1000000000100000002000000000000000000000C0
:1000100000000000000000000000000000000000E0
:1000200000000000000000000000000000000000D0
:1000300000000000000000000000000000000000C0
:1000400000000000000000000000000000000000B0
:0400000310000000E9
:00000001FF
