:020000021000EC
:10000000130101FF232611002324810013040101A1
:10001000370503001305050097000000E780800105
:100020008320C100032481001301010167800000C7
:10003000130101FD2326110223248102130401036D
:10004000232AA4FE130500002328A4FE6F0040000D
:10005000832504FF13053001634AB5026F00400099
:10006000032604FF130516E0832544FF131626001C
:10007000B385C50023A0A5006F004000032504FF41
:10008000130515002328A4FE6FF09FFC1305000044
:100090002326A4FE6F0040008325C4FE1305200123
:1000A0006346B5066F004000032544FF8325C4FE68
:1000B000939525003305B500032505002324A4FEF0
:1000C000832544FF0325C4FE131525003305B50021
:1000D000032545002322A4FE032584FE832544FE38
:1000E0003325B500832544FF0326C4FE13162600DE
:1000F000B385C50023A0A5006F0040000325C4FE02
:10010000130515002326A4FE6FF01FF91305000048
:100110002320A4FE6F004000832504FE1305300158
:10012000634AB5066F004000032504FE232EA4FC9D
:100130000325C4FD9315D5003345B500232EA4FC3B
:100140000325C4FD935575003345B500232EA4FC4B
:100150000325C4FD931555003345B500232EA4FC9B
:100160000325C4FDB70500803345B500832544FF52
:10017000032604FE13162600B385C50023A0A500A0
:100180006F004000032504FE130515002320A4FE84
:100190006FF09FF813050000232CA4FC6F004000B3
:1001A000832584FD13052001634EB5026F004000D6
:1001B000032544FF832584FD93952500B305B500F1
:1001C00003A5050003A645003335C50023A0A500FF
:1001D0006F004000032584FD13051500232CA4FCAB
:1001E0006FF01FFC130500008320C102032481026D
:0801F000130101036780000008
:020000023000CC
:1000000000100000002000000000000000000000C0
:1000100000000000000000000000000000000000E0
:1000200000000000000000000000000000000000D0
:1000300000000000000000000000000000000000C0
:1000400000000000000000000000000000000000B0
:0400000310000000E9
:00000001FF
