:020000021000EC
:10000000130101FF232611002324810013040101A1
:10001000370503001305050097000000E780800105
:100020008320C100032481001301010167800000C7
:10003000130101FD2326110223248102130401036D
:10004000232AA4FE130500002328A4FE6F0040000D
:10005000832504FF13053001634AB5026F00400099
:10006000032604FF130516E0832544FF131626001C
:10007000B385C50023A0A5006F004000032504FF41
:10008000130515002328A4FE6FF09FFC1305000044
:100090002326A4FE6F0040008325C4FE1305300113
:1000A000634EB5066F004000032544FF8325C4FE60
:1000B000939525003305B500032505009305000041
:1000C0006314B5026F004000032544FF8325C4FE7E
:1000D00093952500B305B50037C5ADDE1305F5EEE4
:1000E00023A0A5006F004002032544FF8325C4FE22
:1000F00093952500B305B50003A505001345F5FF4D
:1001000023A0A5006F0040006F0040000325C4FE3F
:10011000130515002326A4FE6FF01FF81305000039
:100120002324A4FE2322A4FE6F004000832544FE66
:10013000130530016342B5086F004000032544FFFA
:10014000832544FE939525003305B500032505005E
:100150002320A4FE032504FE832584FE6354B502F8
:100160006F004000032504FE1305853E832544FFF0
:10017000032644FE13162600B385C50023A0A50060
:100180006F004002032504FE130585C1832544FF4B
:10019000032644FE13162600B385C50023A0A50040
:1001A0006F0040006F004000032544FE130515005A
:1001B0002322A4FE6FF09FF737050080232EA4FCB6
:1001C00013050000232CA4FC6F004000832584FD50
:1001D00013053001634EB5066F004000032544FF50
:1001E000832584FD939525003305B500032505007F
:1001F0008325C4FD6374B5026F004000032544FFEE
:10020000832584FD93952500B305B50003A505005E
:100210001305150023A0A5006F004002032544FF2D
:10022000832584FD93952500B305B50003A505003E
:100230001305F5FF23A0A5006F0040006F004000EC
:10024000032584FD13051500232CA4FC6FF01FF873
:10025000130500008320C10203248102130101035E
:0402600067800000B3
:020000023000CC
:1000000000100000002000000000000000000000C0
:1000100000000000000000000000000000000000E0
:1000200000000000000000000000000000000000D0
:1000300000000000000000000000000000000000C0
:1000400000000000000000000000000000000000B0
:0400000310000000E9
:00000001FF
